:1000000002EF00F0A1ECFDF04CECFEF068ECFDF02E
:10001000000E316E326E1F6E206E0B0E206ED3EC12
:10002000FFF0040E1F6EBCECFFF017EF00F073EC56
:10003000FDF0DBECFEF01DEF00F0ACECFEF0D4ECDC
:10004000FDF01D5077ECFEF068EC00F073ECFDF075
:100050007CECFDF0006E3463F7ECFEF01DEF00F079
:100060001200FF0E4AEC00F0FF0E4AEC00F0FF0E0B
:100070004AEC00F0FF0E4AEC00F0FF0E4AEC00F0F4
:10008000FF0E4AEC00F0FF0E4AEC00F0FF0E4AECC7
:1000900000F01200236E640E51EC00F0232EFBD70B
:1000A0001200216E213A0F0E2114226EF00E21163D
:1000B0005BEC00F01200000E2106225AFDE2120055
:1000C00002521F6EA8ECFDF00352206EB3ECFDF05F
:1000D000050E266F6CEF00F003002607000E266366
:0600E0006CEF00F01200BD
:020000040001F9
:10FAD00092680F0125680001010EC26E300EC16EE2
:10FAE000F60EC06E1200C282C2B2FED71200C4501F
:10FAF000326EC350316E1200000E336E346EC4503D
:10FB0000326288ECFDF0010E336296ECFDF01200DB
:10FB1000C45032601200326EC350316E010E346E2A
:10FB2000336E1200326EC350316E1200C3500000AB
:10FB3000000031609DECFDF01200316E010E346F5B
:10FB400012007F9C7F8E000E966E000E956E120046
:10FB5000FF0E846E1F50BEECFDF0000E846E130E7F
:10FB6000BEECFDF01200FF0E836E2050BEECFDF0E7
:10FB7000000E836E130EBEECFDF01200296E190EFE
:10FB8000C5ECFDF0292EFBD71200276E273A0F0E89
:10FB90002714286EF00E2716CFECFDF01200000E91
:10FBA0002706285AFDE21200000E1D6F420E146E49
:10FBB000000E166E32C017F031C015F018ECFEF0D2
:10FBC0001350186F1150156E1050176F1250176E9A
:10FBD000196E0A0E146E000E166E35ECFEF0135000
:10FBE000186F1150156E1050176F12501A6E176F54
:10FBF0000A0E146E000E166E35ECFEF01350186EE1
:10FC00001150156E1050176E12501B6E176E0A0EA3
:10FC1000146E000E166E35ECFEF013501C6E1C5068
:10FC20001D271B501D271A501D2719501D27120074
:10FC300014511503F4CF10F0F3CF11F01651170340
:10FC4000F4CF13F0F3CF12F014511703F350102731
:10FC5000F4501223E86A132316511503F3501027AA
:10FC6000F4501223E86A1323120014511503F4CF41
:10FC700010F0F3CF11F017511403F3501027F45084
:10FC80001223E86A132318511403F3501027F45079
:10FC90001223E86A132312008A6AC00E936E280E9C
:10FCA000C5ECFEF0300E8DECFEF00A0ECCECFEF052
:10FCB000280E8DECFEF00A0ECCECFEF0280E8DEC3A
:10FCC000FEF00A0ECCECFEF00F0E8DECFEF00A0EEC
:10FCD000CCECFEF0010E8DECFEF0020EC5ECFEF059
:10FCE000060E8DECFEF00A0ECCECFEF01200356E26
:10FCF00035387CECFEF035500F0B2F6E0A0E2F605E
:10FD0000070F260F2F249BECFEF01200306EDE5002
:10FD10009BECFEF0302EFBD712002F6E2F380F0B0E
:10FD20008A6E8A98B3ECFEF02F500F0B8A6E8A9879
:10FD3000B3ECFEF012002F6E2F380F0B8A6E8A88FC
:10FD4000B3ECFEF02F500F0B8A6E8A88B3ECFEF0F6
:10FD50000A0ECCECFEF01200010E8DECFEF0020E4D
:10FD6000C5ECFEF0120000000000000000000000E2
:10FD70000000000000008A8A00000000000000006F
:10FD80000000000000008A9A12002E6EFA0ECCECE1
:10FD9000FEF02E2EFBD712002C6E2C3A0F0E2C14D8
:10FDA0002D6EF00E2C16D6ECFEF01200000E2C0676
:10FDB0002D5AFDE21200000E026E036E066E076EF3
:10FDC00073ECFDF07CECFDF0B2ECFFF0060E206E63
:10FDD000D3ECFFF073ECFDF07CECFDF0B2ECFFF047
:10FDE0000DECFFF004ECFFF0F7ECFEF0120062EC1B
:10FDF000FFF068ECFFF040ECFFF051ECFFF02CEC72
:10FE0000FFF004ECFFF0120002501F6EBCECFFF09C
:10FE10000350206ED3ECFFF01200050E016E11EFBF
:10FE2000FFF0010721ECFFF0BCECFFF073ECFDF0FC
:10FE30007CECFDF0B2ECFFF0000E016211EFFFF080
:10FE40001200040E006E25EFFFF000061F2A000EC0
:10FE5000006225EFFFF01200000E06621200000E95
:10FE600007621200020E1F27202790ECFFF0020EFF
:10FE70001F5F6EECFFF0020E1F5F90ECFFF01200B0
:10FE8000010E06621200020E1F27205F6EECFFF0CB
:10FE9000020E1F5E90ECFFF0180E1F6E6EECFFF06E
:10FEA0001200010E07621200020E1F27205F6EEC87
:10FEB000FFF0020E1F5E90ECFFF0180E1F6E6EEC4E
:10FEC000FFF01200040E02621200010E066E120014
:10FED0001A0E02621200010E076E1200BCECFFF057
:10FEE000D3ECFFF068ECFDF073ECFDF07CECFDF082
:10FEF000B2ECFFF0020E056E7EEFFFF0020E20273F
:10FF0000D3ECFFF068ECFDF073ECFDF07CECFDF061
:10FF1000B2ECFFF00506000E05627EEFFFF0120066
:10FF2000BCECFFF0D3ECFFF068ECFDF073ECFDF0FF
:10FF30007CECFDF0B2ECFFF0020E056EA0EFFFF0DE
:10FF4000020E205FD3ECFFF068ECFDF073ECFDF0E7
:10FF50007CECFDF0B2ECFFF00506000E0562A0EFB0
:10FF6000FFF01200000E3462B7ECFFF012001F50D9
:10FF7000026E2050036E1200FF0E0E6FC0EFFFF0F6
:10FF8000A8ECFDF00F07000E0F63C0EFFFF0FF0EAF
:10FF90000F6FCBEFFFF0A8ECFDF00F07000E0F6323
:10FFA000CBEFFFF01200FF0E0E6FD7EFFFF0B3ECB8
:10FFB000FDF00E07000E0E63D7EFFFF0FF0E0E6F81
:10FFC000E2EFFFF0B3ECFDF00E07000E0E63E2EF80
:10FFD000FFF012000B6E640EF1ECFFF00B2EFBD75E
:10FFE0001200096E093A0F0E09140A6EF00E091676
:10FFF000FBECFFF01200000E09060A5AFDE21200A7
:020000040030CA
:0700000015137F00B98B917D
:06000800FFC0FFE0FF4015
:00000001FF
